{"abi":[{"type":"constructor","inputs":[{"name":"_platformWallet","type":"address","internalType":"address"},{"name":"_minimumStake","type":"uint256","internalType":"uint256"}],"stateMutability":"nonpayable"},{"type":"function","name":"approveTask","inputs":[{"name":"taskId","type":"uint256","internalType":"uint256"}],"outputs":[],"stateMutability":"nonpayable"},{"type":"function","name":"createTask","inputs":[{"name":"_deadline","type":"uint256","internalType":"uint256"},{"name":"_backendTaskId","type":"string","internalType":"string"}],"outputs":[{"name":"","type":"uint256","internalType":"uint256"}],"stateMutability":"payable"},{"type":"function","name":"emergencyWithdraw","inputs":[],"outputs":[],"stateMutability":"nonpayable"},{"type":"function","name":"getContractStats","inputs":[],"outputs":[{"name":"totalTasks","type":"uint256","internalType":"uint256"},{"name":"contractBalance","type":"uint256","internalType":"uint256"},{"name":"currentPlatformWallet","type":"address","internalType":"address"}],"stateMutability":"view"},{"type":"function","name":"getTask","inputs":[{"name":"taskId","type":"uint256","internalType":"uint256"}],"outputs":[{"name":"creator","type":"address","internalType":"address"},{"name":"stakedAmount","type":"uint256","internalType":"uint256"},{"name":"deadline","type":"uint256","internalType":"uint256"},{"name":"backendTaskId","type":"string","internalType":"string"},{"name":"status","type":"uint8","internalType":"enum TaskStaking.TaskStatus"},{"name":"proofSubmitted","type":"bool","internalType":"bool"},{"name":"createdAt","type":"uint256","internalType":"uint256"}],"stateMutability":"view"},{"type":"function","name":"getUserTasks","inputs":[{"name":"user","type":"address","internalType":"address"}],"outputs":[{"name":"","type":"uint256[]","internalType":"uint256[]"}],"stateMutability":"view"},{"type":"function","name":"handleExpiredTask","inputs":[{"name":"taskId","type":"uint256","internalType":"uint256"}],"outputs":[],"stateMutability":"nonpayable"},{"type":"function","name":"minimumStake","inputs":[],"outputs":[{"name":"","type":"uint256","internalType":"uint256"}],"stateMutability":"view"},{"type":"function","name":"owner","inputs":[],"outputs":[{"name":"","type":"address","internalType":"address"}],"stateMutability":"view"},{"type":"function","name":"platformWallet","inputs":[],"outputs":[{"name":"","type":"address","internalType":"address"}],"stateMutability":"view"},{"type":"function","name":"rejectTaskFull","inputs":[{"name":"taskId","type":"uint256","internalType":"uint256"}],"outputs":[],"stateMutability":"nonpayable"},{"type":"function","name":"rejectTaskPartial","inputs":[{"name":"taskId","type":"uint256","internalType":"uint256"},{"name":"refundPercentage","type":"uint256","internalType":"uint256"}],"outputs":[],"stateMutability":"nonpayable"},{"type":"function","name":"submitProof","inputs":[{"name":"taskId","type":"uint256","internalType":"uint256"}],"outputs":[],"stateMutability":"nonpayable"},{"type":"function","name":"taskCounter","inputs":[],"outputs":[{"name":"","type":"uint256","internalType":"uint256"}],"stateMutability":"view"},{"type":"function","name":"tasks","inputs":[{"name":"","type":"uint256","internalType":"uint256"}],"outputs":[{"name":"creator","type":"address","internalType":"address"},{"name":"stakedAmount","type":"uint256","internalType":"uint256"},{"name":"deadline","type":"uint256","internalType":"uint256"},{"name":"backendTaskId","type":"string","internalType":"string"},{"name":"status","type":"uint8","internalType":"enum TaskStaking.TaskStatus"},{"name":"proofSubmitted","type":"bool","internalType":"bool"},{"name":"createdAt","type":"uint256","internalType":"uint256"}],"stateMutability":"view"},{"type":"function","name":"updateMinimumStake","inputs":[{"name":"_newMinimum","type":"uint256","internalType":"uint256"}],"outputs":[],"stateMutability":"nonpayable"},{"type":"function","name":"updatePlatformWallet","inputs":[{"name":"_newWallet","type":"address","internalType":"address"}],"outputs":[],"stateMutability":"nonpayable"},{"type":"function","name":"userTasks","inputs":[{"name":"","type":"address","internalType":"address"},{"name":"","type":"uint256","internalType":"uint256"}],"outputs":[{"name":"","type":"uint256","internalType":"uint256"}],"stateMutability":"view"},{"type":"event","name":"PlatformWalletUpdated","inputs":[{"name":"newWallet","type":"address","indexed":false,"internalType":"address"}],"anonymous":false},{"type":"event","name":"ProofSubmitted","inputs":[{"name":"taskId","type":"uint256","indexed":true,"internalType":"uint256"},{"name":"creator","type":"address","indexed":true,"internalType":"address"}],"anonymous":false},{"type":"event","name":"TaskCompleted","inputs":[{"name":"taskId","type":"uint256","indexed":true,"internalType":"uint256"},{"name":"creator","type":"address","indexed":true,"internalType":"address"},{"name":"returnedAmount","type":"uint256","indexed":false,"internalType":"uint256"}],"anonymous":false},{"type":"event","name":"TaskCreated","inputs":[{"name":"taskId","type":"uint256","indexed":true,"internalType":"uint256"},{"name":"creator","type":"address","indexed":true,"internalType":"address"},{"name":"stakedAmount","type":"uint256","indexed":false,"internalType":"uint256"},{"name":"deadline","type":"uint256","indexed":false,"internalType":"uint256"},{"name":"backendTaskId","type":"string","indexed":false,"internalType":"string"}],"anonymous":false},{"type":"event","name":"TaskFailed","inputs":[{"name":"taskId","type":"uint256","indexed":true,"internalType":"uint256"},{"name":"creator","type":"address","indexed":true,"internalType":"address"},{"name":"penaltyAmount","type":"uint256","indexed":false,"internalType":"uint256"}],"anonymous":false}],"bytecode":{"object":"0x608060405234801561000f575f5ffd5b50604051612c8b380380612c8b83398181016040528101906100319190610157565b3360025f6101000a81548173ffffffffffffffffffffffffffffffffffffffff021916908373ffffffffffffffffffffffffffffffffffffffff1602179055508160035f6101000a81548173ffffffffffffffffffffffffffffffffffffffff021916908373ffffffffffffffffffffffffffffffffffffffff160217905550806005819055505f6004819055505050610195565b5f5ffd5b5f73ffffffffffffffffffffffffffffffffffffffff82169050919050565b5f6100f3826100ca565b9050919050565b610103816100e9565b811461010d575f5ffd5b50565b5f8151905061011e816100fa565b92915050565b5f819050919050565b61013681610124565b8114610140575f5ffd5b50565b5f815190506101518161012d565b92915050565b5f5f6040838503121561016d5761016c6100c6565b5b5f61017a85828601610110565b925050602061018b85828601610143565b9150509250929050565b612ae9806101a25f395ff3fe608060405260043610610108575f3560e01c80638da5cb5b11610094578063db2e21bc11610063578063db2e21bc1461037c578063dc0fa4da14610392578063dfe6b5d6146103ba578063ec5ffac2146103e6578063fa2af9da1461041057610108565b80638da5cb5b146102c657806395d57660146102f0578063ada4ef301461032c578063c49a5e841461035457610108565b80634c41e880116100db5780634c41e880146101ce57806358671730146101f657806366873a5514610220578063869a5e2b1461025c5780638d9776721461028457610108565b80630a07fae61461010c57806316d41b94146101345780631d65e77e1461016457806345689924146101a6575b5f5ffd5b348015610117575f5ffd5b50610132600480360381019061012d9190611c07565b61043a565b005b61014e60048036038101906101499190611d6e565b610704565b60405161015b9190611dd7565b60405180910390f35b34801561016f575f5ffd5b5061018a60048036038101906101859190611c07565b6109e2565b60405161019d9796959493929190611f1c565b60405180910390f35b3480156101b1575f5ffd5b506101cc60048036038101906101c79190611f90565b610afa565b005b3480156101d9575f5ffd5b506101f460048036038101906101ef9190611c07565b610eab565b005b348015610201575f5ffd5b5061020a610f44565b6040516102179190611dd7565b60405180910390f35b34801561022b575f5ffd5b5061024660048036038101906102419190611ff8565b610f4a565b6040516102539190611dd7565b60405180910390f35b348015610267575f5ffd5b50610282600480360381019061027d9190611c07565b610f75565b005b34801561028f575f5ffd5b506102aa60048036038101906102a59190611c07565b61126a565b6040516102bd9796959493929190611f1c565b60405180910390f35b3480156102d1575f5ffd5b506102da611365565b6040516102e79190612036565b60405180910390f35b3480156102fb575f5ffd5b506103166004803603810190610311919061204f565b61138a565b6040516103239190612131565b60405180910390f35b348015610337575f5ffd5b50610352600480360381019061034d919061204f565b61141d565b005b34801561035f575f5ffd5b5061037a60048036038101906103759190611c07565b611526565b005b348015610387575f5ffd5b506103906117ef565b005b34801561039d575f5ffd5b506103b860048036038101906103b39190611c07565b6118e5565b005b3480156103c5575f5ffd5b506103ce611b64565b6040516103dd93929190612151565b60405180910390f35b3480156103f1575f5ffd5b506103fa611b98565b6040516104079190611dd7565b60405180910390f35b34801561041b575f5ffd5b50610424611b9e565b6040516104319190612036565b60405180910390f35b60025f9054906101000a900473ffffffffffffffffffffffffffffffffffffffff1673ffffffffffffffffffffffffffffffffffffffff163373ffffffffffffffffffffffffffffffffffffffff16146104c9576040517f08c379a00000000000000000000000000000000000000000000000000000000081526004016104c0906121d0565b60405180910390fd5b805f73ffffffffffffffffffffffffffffffffffffffff165f5f8381526020019081526020015f205f015f9054906101000a900473ffffffffffffffffffffffffffffffffffffffff1673ffffffffffffffffffffffffffffffffffffffff1603610569576040517f08c379a000000000000000000000000000000000000000000000000000000000815260040161056090612238565b60405180910390fd5b5f5f5f8481526020019081526020015f209050600160048111156105905761058f611e8f565b5b816004015f9054906101000a900460ff1660048111156105b3576105b2611e8f565b5b146105f3576040517f08c379a00000000000000000000000000000000000000000000000000000000081526004016105ea906122a0565b60405180910390fd5b6002816004015f6101000a81548160ff0219169083600481111561061a57610619611e8f565b5b02179055505f81600101549050815f015f9054906101000a900473ffffffffffffffffffffffffffffffffffffffff1673ffffffffffffffffffffffffffffffffffffffff166108fc8290811502906040515f60405180830381858888f1935050505015801561068c573d5f5f3e3d5ffd5b50815f015f9054906101000a900473ffffffffffffffffffffffffffffffffffffffff1673ffffffffffffffffffffffffffffffffffffffff16847f843af93d40addceac6932508439844b897d4df9e971db326d557e3cdaa9f3ebf836040516106f69190611dd7565b60405180910390a350505050565b5f60055434101561074a576040517f08c379a000000000000000000000000000000000000000000000000000000000815260040161074190612308565b60405180910390fd5b42831161078c576040517f08c379a000000000000000000000000000000000000000000000000000000000815260040161078390612370565b60405180910390fd5b5f8251116107cf576040517f08c379a00000000000000000000000000000000000000000000000000000000081526004016107c6906123d8565b60405180910390fd5b60045f8154809291906107e190612423565b91905055506040518060e001604052803373ffffffffffffffffffffffffffffffffffffffff1681526020013481526020018481526020018381526020015f600481111561083257610831611e8f565b5b81526020015f15158152602001428152505f5f60045481526020019081526020015f205f820151815f015f6101000a81548173ffffffffffffffffffffffffffffffffffffffff021916908373ffffffffffffffffffffffffffffffffffffffff160217905550602082015181600101556040820151816002015560608201518160030190816108c29190612667565b506080820151816004015f6101000a81548160ff021916908360048111156108ed576108ec611e8f565b5b021790555060a08201518160040160016101000a81548160ff02191690831515021790555060c0820151816005015590505060015f3373ffffffffffffffffffffffffffffffffffffffff1673ffffffffffffffffffffffffffffffffffffffff1681526020019081526020015f20600454908060018154018082558091505060019003905f5260205f20015f90919091909150553373ffffffffffffffffffffffffffffffffffffffff166004547fb5e5fbf3346e9f5c610406862e51622b9d1e7fefd46de0e79367de79c2b748903486866040516109cf93929190612736565b60405180910390a3600454905092915050565b5f5f5f60605f5f5f5f5f5f8a81526020019081526020015f209050805f015f9054906101000a900473ffffffffffffffffffffffffffffffffffffffff168160010154826002015483600301846004015f9054906101000a900460ff168560040160019054906101000a900460ff168660050154838054610a6290612497565b80601f0160208091040260200160405190810160405280929190818152602001828054610a8e90612497565b8015610ad95780601f10610ab057610100808354040283529160200191610ad9565b820191905f5260205f20905b815481529060010190602001808311610abc57829003601f168201915b50505050509350975097509750975097509750975050919395979092949650565b60025f9054906101000a900473ffffffffffffffffffffffffffffffffffffffff1673ffffffffffffffffffffffffffffffffffffffff163373ffffffffffffffffffffffffffffffffffffffff1614610b89576040517f08c379a0000000000000000000000000000000000000000000000000000000008152600401610b80906121d0565b60405180910390fd5b815f73ffffffffffffffffffffffffffffffffffffffff165f5f8381526020019081526020015f205f015f9054906101000a900473ffffffffffffffffffffffffffffffffffffffff1673ffffffffffffffffffffffffffffffffffffffff1603610c29576040517f08c379a0000000000000000000000000000000000000000000000000000000008152600401610c2090612238565b60405180910390fd5b6064821115610c6d576040517f08c379a0000000000000000000000000000000000000000000000000000000008152600401610c64906127bc565b60405180910390fd5b5f5f5f8581526020019081526020015f20905060016004811115610c9457610c93611e8f565b5b816004015f9054906101000a900460ff166004811115610cb757610cb6611e8f565b5b14610cf7576040517f08c379a0000000000000000000000000000000000000000000000000000000008152600401610cee906122a0565b60405180910390fd5b6003816004015f6101000a81548160ff02191690836004811115610d1e57610d1d611e8f565b5b02179055505f6064848360010154610d3691906127da565b610d409190612848565b90505f818360010154610d539190612878565b90505f821115610dc457825f015f9054906101000a900473ffffffffffffffffffffffffffffffffffffffff1673ffffffffffffffffffffffffffffffffffffffff166108fc8390811502906040515f60405180830381858888f19350505050158015610dc2573d5f5f3e3d5ffd5b505b5f811115610e325760035f9054906101000a900473ffffffffffffffffffffffffffffffffffffffff1673ffffffffffffffffffffffffffffffffffffffff166108fc8290811502906040515f60405180830381858888f19350505050158015610e30573d5f5f3e3d5ffd5b505b825f015f9054906101000a900473ffffffffffffffffffffffffffffffffffffffff1673ffffffffffffffffffffffffffffffffffffffff16867f8b193d3376a80fbe0e01aa5512fcddf19c1c39f4861538f999e09db95a33581a83604051610e9b9190611dd7565b60405180910390a3505050505050565b60025f9054906101000a900473ffffffffffffffffffffffffffffffffffffffff1673ffffffffffffffffffffffffffffffffffffffff163373ffffffffffffffffffffffffffffffffffffffff1614610f3a576040517f08c379a0000000000000000000000000000000000000000000000000000000008152600401610f31906121d0565b60405180910390fd5b8060058190555050565b60045481565b6001602052815f5260405f208181548110610f63575f80fd5b905f5260205f20015f91509150505481565b805f73ffffffffffffffffffffffffffffffffffffffff165f5f8381526020019081526020015f205f015f9054906101000a900473ffffffffffffffffffffffffffffffffffffffff1673ffffffffffffffffffffffffffffffffffffffff1603611015576040517f08c379a000000000000000000000000000000000000000000000000000000000815260040161100c90612238565b60405180910390fd5b813373ffffffffffffffffffffffffffffffffffffffff165f5f8381526020019081526020015f205f015f9054906101000a900473ffffffffffffffffffffffffffffffffffffffff1673ffffffffffffffffffffffffffffffffffffffff16146110b5576040517f08c379a00000000000000000000000000000000000000000000000000000000081526004016110ac906128f5565b60405180910390fd5b5f5f5f8581526020019081526020015f2090505f60048111156110db576110da611e8f565b5b816004015f9054906101000a900460ff1660048111156110fe576110fd611e8f565b5b1461113e576040517f08c379a00000000000000000000000000000000000000000000000000000000081526004016111359061295d565b60405180910390fd5b8060020154421115611185576040517f08c379a000000000000000000000000000000000000000000000000000000000815260040161117c906129c5565b60405180910390fd5b8060040160019054906101000a900460ff16156111d7576040517f08c379a00000000000000000000000000000000000000000000000000000000081526004016111ce90612a2d565b60405180910390fd5b60018160040160016101000a81548160ff0219169083151502179055506001816004015f6101000a81548160ff0219169083600481111561121b5761121a611e8f565b5b02179055503373ffffffffffffffffffffffffffffffffffffffff16847f9e3b66ba7483176c0ebc5e065f1328c97a6dd282a1244b597668e7a33979672660405160405180910390a350505050565b5f602052805f5260405f205f91509050805f015f9054906101000a900473ffffffffffffffffffffffffffffffffffffffff16908060010154908060020154908060030180546112b990612497565b80601f01602080910402602001604051908101604052809291908181526020018280546112e590612497565b80156113305780601f1061130757610100808354040283529160200191611330565b820191905f5260205f20905b81548152906001019060200180831161131357829003601f168201915b505050505090806004015f9054906101000a900460ff16908060040160019054906101000a900460ff16908060050154905087565b60025f9054906101000a900473ffffffffffffffffffffffffffffffffffffffff1681565b606060015f8373ffffffffffffffffffffffffffffffffffffffff1673ffffffffffffffffffffffffffffffffffffffff1681526020019081526020015f2080548060200260200160405190810160405280929190818152602001828054801561141157602002820191905f5260205f20905b8154815260200190600101908083116113fd575b50505050509050919050565b60025f9054906101000a900473ffffffffffffffffffffffffffffffffffffffff1673ffffffffffffffffffffffffffffffffffffffff163373ffffffffffffffffffffffffffffffffffffffff16146114ac576040517f08c379a00000000000000000000000000000000000000000000000000000000081526004016114a3906121d0565b60405180910390fd5b8060035f6101000a81548173ffffffffffffffffffffffffffffffffffffffff021916908373ffffffffffffffffffffffffffffffffffffffff1602179055507f73238e3ae0a71b401b31ae67204506d074de41bd5c084082fba9b64b1c7fa28f8160405161151b9190612036565b60405180910390a150565b60025f9054906101000a900473ffffffffffffffffffffffffffffffffffffffff1673ffffffffffffffffffffffffffffffffffffffff163373ffffffffffffffffffffffffffffffffffffffff16146115b5576040517f08c379a00000000000000000000000000000000000000000000000000000000081526004016115ac906121d0565b60405180910390fd5b805f73ffffffffffffffffffffffffffffffffffffffff165f5f8381526020019081526020015f205f015f9054906101000a900473ffffffffffffffffffffffffffffffffffffffff1673ffffffffffffffffffffffffffffffffffffffff1603611655576040517f08c379a000000000000000000000000000000000000000000000000000000000815260040161164c90612238565b60405180910390fd5b5f5f5f8481526020019081526020015f2090506001600481111561167c5761167b611e8f565b5b816004015f9054906101000a900460ff16600481111561169f5761169e611e8f565b5b146116df576040517f08c379a00000000000000000000000000000000000000000000000000000000081526004016116d6906122a0565b60405180910390fd5b6003816004015f6101000a81548160ff0219169083600481111561170657611705611e8f565b5b02179055505f8160010154905060035f9054906101000a900473ffffffffffffffffffffffffffffffffffffffff1673ffffffffffffffffffffffffffffffffffffffff166108fc8290811502906040515f60405180830381858888f19350505050158015611777573d5f5f3e3d5ffd5b50815f015f9054906101000a900473ffffffffffffffffffffffffffffffffffffffff1673ffffffffffffffffffffffffffffffffffffffff16847f8b193d3376a80fbe0e01aa5512fcddf19c1c39f4861538f999e09db95a33581a836040516117e19190611dd7565b60405180910390a350505050565b60025f9054906101000a900473ffffffffffffffffffffffffffffffffffffffff1673ffffffffffffffffffffffffffffffffffffffff163373ffffffffffffffffffffffffffffffffffffffff161461187e576040517f08c379a0000000000000000000000000000000000000000000000000000000008152600401611875906121d0565b60405180910390fd5b60025f9054906101000a900473ffffffffffffffffffffffffffffffffffffffff1673ffffffffffffffffffffffffffffffffffffffff166108fc4790811502906040515f60405180830381858888f193505050501580156118e2573d5f5f3e3d5ffd5b50565b805f73ffffffffffffffffffffffffffffffffffffffff165f5f8381526020019081526020015f205f015f9054906101000a900473ffffffffffffffffffffffffffffffffffffffff1673ffffffffffffffffffffffffffffffffffffffff1603611985576040517f08c379a000000000000000000000000000000000000000000000000000000000815260040161197c90612238565b60405180910390fd5b5f5f5f8481526020019081526020015f2090505f60048111156119ab576119aa611e8f565b5b816004015f9054906101000a900460ff1660048111156119ce576119cd611e8f565b5b14611a0e576040517f08c379a0000000000000000000000000000000000000000000000000000000008152600401611a059061295d565b60405180910390fd5b80600201544211611a54576040517f08c379a0000000000000000000000000000000000000000000000000000000008152600401611a4b90612a95565b60405180910390fd5b6003816004015f6101000a81548160ff02191690836004811115611a7b57611a7a611e8f565b5b02179055505f8160010154905060035f9054906101000a900473ffffffffffffffffffffffffffffffffffffffff1673ffffffffffffffffffffffffffffffffffffffff166108fc8290811502906040515f60405180830381858888f19350505050158015611aec573d5f5f3e3d5ffd5b50815f015f9054906101000a900473ffffffffffffffffffffffffffffffffffffffff1673ffffffffffffffffffffffffffffffffffffffff16847f8b193d3376a80fbe0e01aa5512fcddf19c1c39f4861538f999e09db95a33581a83604051611b569190611dd7565b60405180910390a350505050565b5f5f5f6004544760035f9054906101000a900473ffffffffffffffffffffffffffffffffffffffff16925092509250909192565b60055481565b60035f9054906101000a900473ffffffffffffffffffffffffffffffffffffffff1681565b5f604051905090565b5f5ffd5b5f5ffd5b5f819050919050565b611be681611bd4565b8114611bf0575f5ffd5b50565b5f81359050611c0181611bdd565b92915050565b5f60208284031215611c1c57611c1b611bcc565b5b5f611c2984828501611bf3565b91505092915050565b5f5ffd5b5f5ffd5b5f601f19601f8301169050919050565b7f4e487b71000000000000000000000000000000000000000000000000000000005f52604160045260245ffd5b611c8082611c3a565b810181811067ffffffffffffffff82111715611c9f57611c9e611c4a565b5b80604052505050565b5f611cb1611bc3565b9050611cbd8282611c77565b919050565b5f67ffffffffffffffff821115611cdc57611cdb611c4a565b5b611ce582611c3a565b9050602081019050919050565b828183375f83830152505050565b5f611d12611d0d84611cc2565b611ca8565b905082815260208101848484011115611d2e57611d2d611c36565b5b611d39848285611cf2565b509392505050565b5f82601f830112611d5557611d54611c32565b5b8135611d65848260208601611d00565b91505092915050565b5f5f60408385031215611d8457611d83611bcc565b5b5f611d9185828601611bf3565b925050602083013567ffffffffffffffff811115611db257611db1611bd0565b5b611dbe85828601611d41565b9150509250929050565b611dd181611bd4565b82525050565b5f602082019050611dea5f830184611dc8565b92915050565b5f73ffffffffffffffffffffffffffffffffffffffff82169050919050565b5f611e1982611df0565b9050919050565b611e2981611e0f565b82525050565b5f81519050919050565b5f82825260208201905092915050565b8281835e5f83830152505050565b5f611e6182611e2f565b611e6b8185611e39565b9350611e7b818560208601611e49565b611e8481611c3a565b840191505092915050565b7f4e487b71000000000000000000000000000000000000000000000000000000005f52602160045260245ffd5b60058110611ecd57611ecc611e8f565b5b50565b5f819050611edd82611ebc565b919050565b5f611eec82611ed0565b9050919050565b611efc81611ee2565b82525050565b5f8115159050919050565b611f1681611f02565b82525050565b5f60e082019050611f2f5f83018a611e20565b611f3c6020830189611dc8565b611f496040830188611dc8565b8181036060830152611f5b8187611e57565b9050611f6a6080830186611ef3565b611f7760a0830185611f0d565b611f8460c0830184611dc8565b98975050505050505050565b5f5f60408385031215611fa657611fa5611bcc565b5b5f611fb385828601611bf3565b9250506020611fc485828601611bf3565b9150509250929050565b611fd781611e0f565b8114611fe1575f5ffd5b50565b5f81359050611ff281611fce565b92915050565b5f5f6040838503121561200e5761200d611bcc565b5b5f61201b85828601611fe4565b925050602061202c85828601611bf3565b9150509250929050565b5f6020820190506120495f830184611e20565b92915050565b5f6020828403121561206457612063611bcc565b5b5f61207184828501611fe4565b91505092915050565b5f81519050919050565b5f82825260208201905092915050565b5f819050602082019050919050565b6120ac81611bd4565b82525050565b5f6120bd83836120a3565b60208301905092915050565b5f602082019050919050565b5f6120df8261207a565b6120e98185612084565b93506120f483612094565b805f5b8381101561212457815161210b88826120b2565b9750612116836120c9565b9250506001810190506120f7565b5085935050505092915050565b5f6020820190508181035f83015261214981846120d5565b905092915050565b5f6060820190506121645f830186611dc8565b6121716020830185611dc8565b61217e6040830184611e20565b949350505050565b7f4e6f7420617574686f72697a65640000000000000000000000000000000000005f82015250565b5f6121ba600e83611e39565b91506121c582612186565b602082019050919050565b5f6020820190508181035f8301526121e7816121ae565b9050919050565b7f5461736b20646f6573206e6f74206578697374000000000000000000000000005f82015250565b5f612222601383611e39565b915061222d826121ee565b602082019050919050565b5f6020820190508181035f83015261224f81612216565b9050919050565b7f5461736b206e6f74207375626d697474656420666f72207265766965770000005f82015250565b5f61228a601d83611e39565b915061229582612256565b602082019050919050565b5f6020820190508181035f8301526122b78161227e565b9050919050565b7f5374616b6520616d6f756e7420746f6f206c6f770000000000000000000000005f82015250565b5f6122f2601483611e39565b91506122fd826122be565b602082019050919050565b5f6020820190508181035f83015261231f816122e6565b9050919050565b7f446561646c696e65206d75737420626520696e206675747572650000000000005f82015250565b5f61235a601a83611e39565b915061236582612326565b602082019050919050565b5f6020820190508181035f8301526123878161234e565b9050919050565b7f4261636b656e64207461736b20494420726571756972656400000000000000005f82015250565b5f6123c2601883611e39565b91506123cd8261238e565b602082019050919050565b5f6020820190508181035f8301526123ef816123b6565b9050919050565b7f4e487b71000000000000000000000000000000000000000000000000000000005f52601160045260245ffd5b5f61242d82611bd4565b91507fffffffffffffffffffffffffffffffffffffffffffffffffffffffffffffffff820361245f5761245e6123f6565b5b600182019050919050565b7f4e487b71000000000000000000000000000000000000000000000000000000005f52602260045260245ffd5b5f60028204905060018216806124ae57607f821691505b6020821081036124c1576124c061246a565b5b50919050565b5f819050815f5260205f209050919050565b5f6020601f8301049050919050565b5f82821b905092915050565b5f600883026125237fffffffffffffffffffffffffffffffffffffffffffffffffffffffffffffffff826124e8565b61252d86836124e8565b95508019841693508086168417925050509392505050565b5f819050919050565b5f61256861256361255e84611bd4565b612545565b611bd4565b9050919050565b5f819050919050565b6125818361254e565b61259561258d8261256f565b8484546124f4565b825550505050565b5f5f905090565b6125ac61259d565b6125b7818484612578565b505050565b5b818110156125da576125cf5f826125a4565b6001810190506125bd565b5050565b601f82111561261f576125f0816124c7565b6125f9846124d9565b81016020851015612608578190505b61261c612614856124d9565b8301826125bc565b50505b505050565b5f82821c905092915050565b5f61263f5f1984600802612624565b1980831691505092915050565b5f6126578383612630565b9150826002028217905092915050565b61267082611e2f565b67ffffffffffffffff81111561268957612688611c4a565b5b6126938254612497565b61269e8282856125de565b5f60209050601f8311600181146126cf575f84156126bd578287015190505b6126c7858261264c565b86555061272e565b601f1984166126dd866124c7565b5f5b82811015612704578489015182556001820191506020850194506020810190506126df565b86831015612721578489015161271d601f891682612630565b8355505b6001600288020188555050505b505050505050565b5f6060820190506127495f830186611dc8565b6127566020830185611dc8565b81810360408301526127688184611e57565b9050949350505050565b7f496e76616c69642070657263656e7461676500000000000000000000000000005f82015250565b5f6127a6601283611e39565b91506127b182612772565b602082019050919050565b5f6020820190508181035f8301526127d38161279a565b9050919050565b5f6127e482611bd4565b91506127ef83611bd4565b92508282026127fd81611bd4565b91508282048414831517612814576128136123f6565b5b5092915050565b7f4e487b71000000000000000000000000000000000000000000000000000000005f52601260045260245ffd5b5f61285282611bd4565b915061285d83611bd4565b92508261286d5761286c61281b565b5b828204905092915050565b5f61288282611bd4565b915061288d83611bd4565b92508282039050818111156128a5576128a46123f6565b5b92915050565b7f4e6f74207461736b2063726561746f72000000000000000000000000000000005f82015250565b5f6128df601083611e39565b91506128ea826128ab565b602082019050919050565b5f6020820190508181035f83015261290c816128d3565b9050919050565b7f5461736b206e6f742061637469766500000000000000000000000000000000005f82015250565b5f612947600f83611e39565b915061295282612913565b602082019050919050565b5f6020820190508181035f8301526129748161293b565b9050919050565b7f446561646c696e652070617373656400000000000000000000000000000000005f82015250565b5f6129af600f83611e39565b91506129ba8261297b565b602082019050919050565b5f6020820190508181035f8301526129dc816129a3565b9050919050565b7f50726f6f6620616c7265616479207375626d69747465640000000000000000005f82015250565b5f612a17601783611e39565b9150612a22826129e3565b602082019050919050565b5f6020820190508181035f830152612a4481612a0b565b9050919050565b7f5461736b206e6f742065787069726564000000000000000000000000000000005f82015250565b5f612a7f601083611e39565b9150612a8a82612a4b565b602082019050919050565b5f6020820190508181035f830152612aac81612a73565b905091905056fea2646970667358221220fcf86ff972b627d83f3e95bc1ac67c02b85f3b728b308d0132b94b49c8b3b79d64736f6c634300081e0033","linkReferences":{}},"methodIdentifiers":{"approveTask(uint256)":"0a07fae6","createTask(uint256,string)":"16d41b94","emergencyWithdraw()":"db2e21bc","getContractStats()":"dfe6b5d6","getTask(uint256)":"1d65e77e","getUserTasks(address)":"95d57660","handleExpiredTask(uint256)":"dc0fa4da","minimumStake()":"ec5ffac2","owner()":"8da5cb5b","platformWallet()":"fa2af9da","rejectTaskFull(uint256)":"c49a5e84","rejectTaskPartial(uint256,uint256)":"45689924","submitProof(uint256)":"869a5e2b","taskCounter()":"58671730","tasks(uint256)":"8d977672","updateMinimumStake(uint256)":"4c41e880","updatePlatformWallet(address)":"ada4ef30","userTasks(address,uint256)":"66873a55"},"id":0}